{
    "contractName": "campaignFectory",
    "abi": [
        {
            "constant": true,
            "inputs": [],
            "name": "getDeployedCampaign",
            "outputs": [
                {
                    "name": "",
                    "type": "address[]"
                }
            ],
            "payable": false,
            "stateMutability": "view",
            "type": "function"
        },
        {
            "constant": false,
            "inputs": [
                {
                    "name": "minium",
                    "type": "uint256"
                }
            ],
            "name": "createCampaign",
            "outputs": [],
            "payable": false,
            "stateMutability": "nonpayable",
            "type": "function"
        },
        {
            "constant": true,
            "inputs": [
                {
                    "name": "",
                    "type": "uint256"
                }
            ],
            "name": "deployedCampaign",
            "outputs": [
                {
                    "name": "",
                    "type": "address"
                }
            ],
            "payable": false,
            "stateMutability": "view",
            "type": "function"
        }
    ],
    "bytecode": "6060604052341561000f57600080fd5b610b0c8061001e6000396000f300606060405263ffffffff7c01000000000000000000000000000000000000000000000000000000006000350416635eac00078114610052578063a3303a75146100b8578063b7ccb9ab146100d057600080fd5b341561005d57600080fd5b61006561010f565b60405160208082528190810183818151815260200191508051906020019060200280838360005b838110156100a457808201518382015260200161008c565b505050509050019250505060405180910390f35b34156100c357600080fd5b6100ce600435610185565b005b34156100db57600080fd5b6100e6600435610226565b60405173ffffffffffffffffffffffffffffffffffffffff909116815260200160405180910390f35b61011761025b565b600080548060200260200160405190810160405280929190818152602001828054801561017a57602002820191906000526020600020905b815473ffffffffffffffffffffffffffffffffffffffff16815260019091019060200180831161014f575b505050505090505b90565b6000813361019161026d565b91825273ffffffffffffffffffffffffffffffffffffffff16602082015260409081019051809103906000f08015156101c957600080fd5b9050600080548060010182816101df919061027d565b506000918252602090912001805473ffffffffffffffffffffffffffffffffffffffff191673ffffffffffffffffffffffffffffffffffffffff9290921691909117905550565b600080548290811061023457fe5b60009182526020909120015473ffffffffffffffffffffffffffffffffffffffff16905081565b60206040519081016040526000815290565b60405161081c806102c583390190565b8154818355818115116102a1576000838152602090206102a19181019083016102a6565b505050565b61018291905b808211156102c057600081556001016102ac565b509056006060604052341561000f57600080fd5b60405160408061081c833981016040528080519190602001805160018054600160a060020a031916600160a060020a039290921691909117905550506002556107bf8061005d6000396000f300606060405236156100965763ffffffff7c010000000000000000000000000000000000000000000000000000000060003504166303441006811461009b5780630a144391146100b3578063481c6a75146100e657806381d12c581461011557806382fde093146101dc5780638a9cfd5514610201578063937e09b114610262578063d7bb99ba14610275578063d7d1bbdb1461027d575b600080fd5b34156100a657600080fd5b6100b1600435610293565b005b34156100be57600080fd5b6100d2600160a060020a036004351661036d565b604051901515815260200160405180910390f35b34156100f157600080fd5b6100f9610382565b604051600160a060020a03909116815260200160405180910390f35b341561012057600080fd5b61012b600435610391565b60405160208101859052600160a060020a038416604082015282151560608201526080810182905260a0808252865460026000196101006001841615020190911604908201819052819060c0820190889080156101c95780601f1061019e576101008083540402835291602001916101c9565b820191906000526020600020905b8154815290600101906020018083116101ac57829003601f168201915b5050965050505050505060405180910390f35b34156101e757600080fd5b6101ef6103dc565b60405190815260200160405180910390f35b341561020c57600080fd5b6100b160046024813581810190830135806020601f820181900481020160405190810160405281815292919060208401838380828437509496505084359460200135600160a060020a031693506103e292505050565b341561026d57600080fd5b6101ef6104fa565b6100b1610500565b341561028857600080fd5b6100b160043561053f565b60015460009033600160a060020a039081169116146102b157600080fd5b60008054839081106102bf57fe5b9060005260206000209060050201905060026004548115156102dd57fe5b0481600301541115156102ef57600080fd5b600281015460a060020a900460ff161561030857600080fd5b60028101546001820154600160a060020a039091169080156108fc0290604051600060405180830381858888f19350505050151561034557600080fd5b600201805474ff0000000000000000000000000000000000000000191660a060020a17905550565b60036020526000908152604090205460ff1681565b600154600160a060020a031681565b600080548290811061039f57fe5b600091825260209091206005909102016001810154600282015460038301549293509091600160a060020a0382169160a060020a900460ff169085565b60045481565b6103ea6105e7565b60015433600160a060020a0390811691161461040557600080fd5b60a06040519081016040528085815260200184815260200183600160a060020a031681526020016000151581526020016000815250905060008054806001018281610450919061061d565b6000928352602090922083916005020181518190805161047492916020019061064e565b5060208201518160010155604082015160028201805473ffffffffffffffffffffffffffffffffffffffff1916600160a060020a0392909216919091179055606082015160028201805491151560a060020a0274ff0000000000000000000000000000000000000000199092169190911790556080820151816003015550505050505050565b60025481565b600254341161050e57600080fd5b600160a060020a0333166000908152600360205260409020805460ff19166001908117909155600480549091019055565b6000808281548110151561054f57fe5b60009182526020808320600160a060020a033316845260039091526040909220546005909102909101915060ff16151561058857600080fd5b600160a060020a033316600090815260048201602052604090205460ff16156105b057600080fd5b600160a060020a03331660009081526004820160205260409020805460ff1916600190811790915560039091018054909101905550565b60a0604051908101604052806105fb6106cc565b8152600060208201819052604082018190526060820181905260809091015290565b8154818355818115116106495760050281600502836000526020600020918201910161064991906106de565b505050565b828054600181600116156101000203166002900490600052602060002090601f016020900481019282601f1061068f57805160ff19168380011785556106bc565b828001600101855582156106bc579182015b828111156106bc5782518255916020019190600101906106a1565b506106c8929150610732565b5090565b60206040519081016040526000815290565b61072f91905b808211156106c85760006106f8828261074c565b5060006001820181905560028201805474ffffffffffffffffffffffffffffffffffffffffff1916905560038201556005016106e4565b90565b61072f91905b808211156106c85760008155600101610738565b50805460018160011615610100020316600290046000825580601f106107725750610790565b601f0160209004906000526020600020908101906107909190610732565b505600a165627a7a7230582061702e70ff1a9254528b5cbe0b4ded6b5fc2d89c4d98bfce1cd80ddd2a5bd1c30029a165627a7a723058208c6491db634ab5801716306ef00e8335abc2126ec08376a4007dc72c0f7b5c3c0029",
    "sourcePath": "/home/kapildave7/Development/projects/personal/blockchain/kikstart/ethereum/contract/campaign.sol",
    "compiler": {
        "name": "solc",
        "version": "0.4.17+commit.bdeb9e52"
    },
    "functionHashes": {
        "createCampaign(uint256)": "a3303a75",
        "deployedCampaign(uint256)": "b7ccb9ab",
        "getDeployedCampaign()": "5eac0007"
    },
    "gasEstimates": {
        "creation": {
            "codeDepositCost": "565600",
            "executionCost": "595",
            "totalCost": "566195"
        },
        "external": {
            "createCampaign(uint256)": "infinite",
            "deployedCampaign(uint256)": "711",
            "getDeployedCampaign()": "infinite"
        }
    }
}